:020000020000FC
:0200000033C00B
:0200040050C0EA
:020040003AC0C4
:020034004EC0BC
:1000680004E204B92A9A2D9852985A9A02E0009309
:10007800690001E00DBB05E005BD03E000938100C8
:1000880000E000936E0001E000936F0000270093EA
:10009800840000938500442722277894FFCF002707
:1000A8000DBB01E000936E00002706BD18950027E0
:1000B80000936E004A9906C04095403011F02A9A84
:1000C80001C02A9801E00DBB18952095203011F049
:0800D8002D9A01C02D98189526
:00000001FF
